:1000000093C00000AFC00000ADC00000ABC0000056
:10001000A9C00000A7C00000A5C00000A3C0000048
:10002000A1C000009FC00000F4C700009BC00000FA
:1000300099C0000097C0000095C0000093C0000068
:1000400091C000008FC000008DC000008BC0000078
:1000500089C0000087C0000085C0000083C0000088
:1000600081C000007FC000007DC000007BC0000098
:1000700079C000008FC3000075C0000073C000008D
:1000800072C000006FC000006DC0000022C40000FC
:1000900069C0000067C000001201000200000008F3
:1000A0008117AF0B000001020001090227000101C6
:1000B00000C0320904000003FFFFFF00070506022D
:1000C000100000070582021000000705810D0001E5
:1000D00001040309041203530074007200610077E5
:1000E000006D0061006E0000005203430061006D6E
:1000F0000065007200610020005400720069006712
:1001000000670065007200200032002E0030000001
:100110000045464765666700202B2D2E303132336F
:10012000343536373839680011241FBECFEFD0E29E
:10013000DEBFCDBF11E0A0E0B1E0ECE4F5E100E00E
:100140000BBF02C007900D92A031B107D9F718E19B
:10015000A0E1B1E001C01D92A13DB107E1F7BAD223
:100160000C94A40A4DCF1F920F920FB60F92112438
:100170002F938F939F93AF93BF9380911101882307
:1001800039F080919100887F809391001092110145
:100190008091150190911601A0911701B09118015D
:1001A0008F5F9F4FAF4FBF4FA1F08091150190918E
:1001B0001601A0911701B09118010196A11DB11D62
:1001C0008093150190931601A0931701B093180125
:1001D00038C08091150190911601A0911701B0913E
:1001E00018010196A11DB11D809315019093160170
:1001F000A0931701B09318018091190190911A01F1
:10020000A0911B01B0911C010196A11DB11D80930D
:10021000190190931A01A0931B01B0931C018091C6
:10022000190190911A01A0911B01B0911C01B7FF17
:1002300008C01092190110921A0110921B0110921D
:100240001C01BF91AF919F918F912F910F900FBE85
:100250000F901F9018958091CF18882369F181E045
:100260008093E9008091E80085FD20C0089582E236
:1002700091E01CD480911D0190911E019C0146E0EB
:10028000220F331F4A95E1F72093F1003093F100DC
:10029000019690931E0180931D018091E80085FDD9
:1002A00005C08091E8008F778093E80080919618D0
:1002B00090919718892BD9F608950F938DE591E0C9
:1002C00042E050E060E070E022E000E073D3439849
:1002D0000F9108950F938AE691E042E050E060E0CC
:1002E00070E021E000E066D342980F9108950F93EB
:1002F00087E791E042E050E060E070E020E000E05D
:1003000059D341980F910895EF92FF920F931F9345
:100310008091CF18882309F4C1C186E08093E90059
:100320008091E80085FFBAC18091F100853009F421
:1003300079C0863060F48130C1F0813008F4D2C0D9
:10034000823009F450C0833009F04FC17EC087303D
:1003500009F4E2C0873008F49DC0883021F089306C
:1003600009F043C13CC191E041C18091F100782F77
:1003700060E08091F100680F711D8091F100582FAD
:1003800040E08091F100480F511D8091F100382F1D
:1003900020E08091F100280F311DE091F1009E2FA7
:1003A00080E0E091F1008E0F911DE091F1007093DB
:1003B00099006093980050939B0040939A0030936B
:1003C0009D0020939C00909397008093960010923C
:1003D00095001092940080919100E770887FE82B3F
:1003E000E093910002C180919100887F80939100F9
:1003F00080E09FEF90939500809394008FEF90E0C2
:1004000090939900809398008FEF9FEF90939700BF
:100410008093960081E08093110180919100887F04
:10042000816035C0F8941092150110921601109257
:100430001701109218011092190110921A011092CE
:100440001B0110921C017894D0C080E09EEF909325
:100450009900809398008FEF9EEF90939700809380
:1004600096008FEF9FEF909395008093940080917A
:100470009100887F81608093910080919400909199
:1004800095008F5F9F4FC9F380919100887F809383
:100490009100ABC08091F100182F80FF0AC0419AF3
:1004A00087E791E042E050E060E070E020E001E0AA
:1004B00081D211FF0AC0429A8AE691E042E050E000
:1004C00060E070E021E001E075D212FF8EC0439A37
:1004D0008DE591E042E050E060E070E022E001E074
:1004E00069D283C067D380917A00877F80937A0036
:1004F0001092710080E880937A0080ED97E028ECFC
:1005000030E0F9013197F1F70197D9F7E0910C014B
:10051000F0910D01099569C08091F1000091F10001
:10052000182F86FF05C0F89482E291E069D2789492
:1005300010FF4DC0F8941092130112FF05C01092E5
:10054000981881E08093130113FF0BC08091130171
:10055000E82FF0E0E856F74E91E090838F5F8093AC
:10056000130114FF0BC080911301E82FF0E0E8564F
:10057000F74E92E090838F5F8093130115FF0BC0BD
:1005800080911301E82FF0E0E856F74E93E0908356
:100590008F5F80931301802F869586958695809333
:1005A00014010770086A00937A007894109212017F
:1005B00080917A00886080937A0080919818806694
:1005C00080937C0080917A00806480937A0011FF90
:1005D0000CC080917A00877F80937A0006C090914A
:1005E000F1008BB18F70892B8BB990E08091E8007E
:1005F0008F778093E800992309F450C082E88093B4
:10060000E9008FB7F8946091940070919500209163
:100610001501309116014091170150911801E09099
:100620001901F0901A0100911B0110911C018FBF5C
:100630008091E80085FFFCCF2093F100BB27A52F18
:10064000942F832F8093F100CA01AA27BB278093A0
:10065000F100852F9927AA27BB278093F100E0920C
:10066000F100BB27A12F902F8F2D8093F100C8019F
:10067000AA27BB278093F100812F9927AA27BB27A0
:100680008093F1006093F1007093F10080E5809316
:10069000F1008091E8008F778093E8001F910F911F
:1006A000FF90EF9008950F9382E862E041E020E12F
:1006B00030E000E0AED286E062E040E020E130E0F1
:1006C000A8D281E061E041E020E031E004E0A1D285
:1006D0000F9108951F93CF93DF9384B7877F84BFD3
:1006E00088E10FB6F89480936000109260000FBE0E
:1006F00090E080E80FB6F8948093610090936100D9
:100700000FBE82E291E07CD110BA109213018AB13F
:10071000806F8AB98BB18F708BB988B1877888B9AF
:1007200087B18FEF87B988EE93E09093990080931B
:10073000980010929B0010929A0010929D001092C7
:100740009C0080E197E290939700809396008AEA5C
:10075000809390008AE18093910080917100826083
:1007600080937100A8D0789413E01093C81840D2F9
:100770001093C818C0E0D1E007C08A81882319F01F
:10078000E881F9810995249681E0CC30D807A9F752
:100790002C97FACF1F920F920FB60F920BB60F92B3
:1007A00011242F933F934F935F936F937F938F9376
:1007B0009F93AF93BF93EF93FF9380912101882381
:1007C00021F081508093210135C0809114018093E4
:1007D000210160911F0170912001CB01019690933E
:1007E000200180931F018050944020F0109220013E
:1007F00010921F01809194009091950080911201B8
:100800008F5F8093120190911301891710F010925D
:100810001201E0911201F0E0E856F74E8081806607
:1008200080937C0096E0660F771F9A95E1F782E24D
:1008300091E0FBD0FF91EF91BF91AF919F918F918C
:100840007F916F915F914F913F912F910F900BBED0
:100850000F900FBE0F901F901895DA01923049F05B
:10086000933061F09130F9F4E8E9F0E022E130E012
:100870001EC0EAEAF0E027E230E019C0813049F01A
:10088000813018F0823079F408C0E1EDF0E0849115
:1008900007C0E5EDF0E0849103C0E9EEF0E084915B
:1008A000282F30E004C0E0E0F0E020E030E0ED93FD
:1008B000FC93C90108951092A4181092A5181092E3
:1008C000A6181092A718E1E7F0E08081816080838C
:1008D00008951F920F920FB60F920BB60F9211242C
:1008E000EF92FF920F931F932F933F934F935F933A
:1008F0006F937F938F939F93AF93BF93CF93DF9328
:10090000EF93FF9398EAE92E98E1F92E0CE918E1AC
:10091000C0E0D0E0FE01EC55F74E8081813039F522
:10092000FE01EE0FFF1FEE0FFF1FE854F74E808110
:100930009181A281B3810197A109B109808391833B
:10094000A283B38380819181A281B3810097A105A5
:10095000B10569F4D7012D913D914D915C912083B2
:10096000318342835383D801ED91FC9109952196FF
:1009700084E090E0E80EF91E0E5F1F4FC430D105F1
:1009800049F6FF91EF91DF91CF91BF91AF919F9188
:100990008F917F916F915F914F913F912F911F9117
:1009A0000F91FF90EF900F900BBE0F900FBE0F9026
:1009B0001F9018950F93CF93DF93A22FB0E0FD0106
:1009C000EE0FFF1FE456F74E91838083FD01EE0F7B
:1009D000FF1FEE0FFF1FCF018855974EEC01488394
:1009E00059836A837B83E854F74E40835183628343
:1009F0007383AC55B74E0C93DF91CF910F9108954F
:100A0000FC018FB7F894DF01A059B84E1196FC9302
:100A1000EE93DF01AE58B84E1196FC93EE93EC586E
:100A2000F84E118210828FBF08951F93AC011FB73B
:100A3000F894FC01EC58F84E80819181885B9B40D2
:100A4000A1F4FA01EE58F84E8081918102969183CB
:100A5000808320813181CA018059984E2817390737
:100A600011F45183408320E006C08081918101967A
:100A70009183808321E0DA01A059B84EED91FC9179
:100A80001197718360838D919C91119702961196B5
:100A90009C938E93ED91FC911197EA17FB0711F44B
:100AA000518340831FBF822F1F9108951F93AC0174
:100AB0001FB7F894DC01AE58B84EED91FC91119738
:100AC000608171818D919C911197029611969C93F2
:100AD0008E93FA01EC58F84E8081918101979183B1
:100AE00080832D913C911197CA018059984E281707
:100AF000390719F411965C934E931FBFCB011F91D8
:100B00000895DF93CF9300D0CDB7DEB775D27CD2F6
:100B10001092CF181092CD181092D0181092CC18B5
:100B20001092CB188CE089BD89B5826089BD09B46B
:100B300000FEFDCF8091D800982F9F779093D8002A
:100B400080688093D8008091D70081608093D7001F
:100B50008091D8008F7D8093D8008091E0008B7FBA
:100B60008093E0008091D80081608093D80080E07D
:100B700091E060E0AE014F5F5F4F6FDE892B31F097
:100B8000E981FA813796E491E0930E018091E000CB
:100B90008E7F8093E0008091E20081608093E2008C
:100BA0008091E20088608093E2000F900F90CF91D7
:100BB000DF9108958091CF18882309F0F9D28091B0
:100BC000E00081608093E00017D21ED21092CF180F
:100BD0001092CE181092CD188091D8008F77809304
:100BE000D80019BC8091D8008F7E8093D8000895DA
:100BF000E1DFE7EDF0E080818068808382DFE8ED6F
:100C0000F0E080818061808381E08093CE187894C9
:100C100008950F938093E9008091EB0081608093A9
:100C2000EB001092ED006295660F660F607C642BFE
:100C30006093EC002930310510F480E015C02131BB
:100C4000310510F480E110C02132310510F480E24A
:100C50000BC02134310510F480E306C02138310582
:100C600010F080E501C080E40260802B8093ED00ED
:100C70008091EE00881F8827881F0F910895109299
:100C8000F40090E09093E9001092F0001092E800D8
:100C90008091ED008D7F8093ED008091EB008E7F41
:100CA0008093EB009F5F973069F708950F931F9330
:100CB000DF93CF9300D000D0CDB7DEB76091F100C5
:100CC0005091F100553009F494C0563048F4513039
:100CD00009F44AC0513070F0533009F05CC144C08F
:100CE000583009F416C1593009F42EC1563009F0B4
:100CF00052C19AC0603819F0623809F04CC1809135
:100D0000F1008091F1008091F100603821F06238AB
:100D100051F090E014C09091CB188091CC188823AA
:100D200071F092600CC08093E9008091EB0090E03C
:100D300025E0969587952A95E1F7982F9170109266
:100D4000E9008091E800877F8093E8009093F100AC
:100D50001092F1008091E8008E7F8093E8008091EE
:100D6000E80082FFFCCFEAC0623009F014C1809134
:100D7000F1004091F1007091F1006091F100342F89
:100D800020E090E0282B392B232B09F006C180E0CE
:100D9000272F282B277009F400C12093E9008091A8
:100DA000EB0080FF1BC05130A1F48091EB0080610B
:100DB0008093EB0081E090E002C0880F991F2A9594
:100DC000E2F78093EA001092EA008091EB008860DD
:100DD00003C08091EB0080628093EB001092E900E9
:100DE0008091E800877F8093E8008091E8008E7F03
:100DF000A8C0662309F0CFC09091F1008091E8006F
:100E0000877F8093E8008091E80080FFFCCF80918D
:100E1000E8008E7F8093E8008091E80080FFFCCF9F
:100E200090689093E300B9C0862F8058823008F014
:100E3000B2C04091F1006091F1002091F100E09189
:100E4000F1000091F1001091F100962F80E050E048
:100E50007E2F60E030E0622B732B842B952BAE014C
:100E60004F5F5F4FFADCAC01009709F496C08091A8
:100E7000E800877F8093E800912F80E0202F30E00A
:100E8000282B392B2417350708F4A90180910E016E
:100E9000A82FB0E069817A8120E08D0127C0809180
:100EA000E80082FD4BC08091E80080FFF8CF09C0C8
:100EB000FB016F5F7F4FE491E093F10041505040A0
:100EC00039F08091F2009091F3008A179B0780F32C
:100ED0008091F2009091F30020E08017910709F4CF
:100EE00021E08091E8008E7F8093E8004115510554
:100EF000D1F6222349F08091E80080FFFCCF809159
:100F0000E8008E7F8093E8008091E80082FFFCCFAC
:100F100015C0603809F03FC08091E800877F80935A
:100F2000E8008091CD188093F1008091E8008E7FD9
:100F30008093E8008091E80082FFFCCF8091E80078
:100F40008B7F8093E80029C0662329F51091F1007A
:100F50000091CD1880E091E0AE014D5F5F4F7DDCE8
:100F6000892BD9F0EB81FC817196E491E117A8F00F
:100F70008091E800877F8093E8001093CD188091DE
:100F8000E8008E7F8093E800002319F4112309F014
:100F90000FD189DB02C0852F0BD18091E80083FF40
:100FA0000AC08091EB0080628093EB008091E800A2
:100FB000877F8093E8000F900F900F900F90CF9154
:100FC000DF911F910F9108950F931F938091CF1878
:100FD000882379F00091E9001092E9008091E800FF
:100FE00083FF04C01FB7F89461DE1FBF0770009332
:100FF000E9001F910F910895E8EDF0E080818C7F6A
:1010000080831092E20008951092DA001092E100BD
:1010100008951F920F920FB60F920BB60F921124E4
:101020000F932F933F934F935F936F937F938F9380
:101030009F93AF93BF93EF93FF938091DA0080FF6C
:1010400033C08091D80080FF2FC08091DA008E7F5E
:101050008093DA00ADD08091D90080FF0CC0A8D079
:101060008091CF18882309F0A3D04BDD81E08093D5
:10107000CF189ED019C09CD08091E00081608093F1
:10108000E0008091D80080628093D80019BC8091E4
:10109000D7008E7F8093D7001092CF1889D080918F
:1010A000DA008E7F8093DA008091E10080FF1DC01E
:1010B0008091E20080FF19C08091E1008E7F8093D3
:1010C000E1008091E2008E7F8093E2008091E20057
:1010D00080618093E2008091D80080628093D80084
:1010E00019BC81E08093D01863D08091E10084FF27
:1010F00023C08091E20084FF1FC08CE089BD89B5C8
:10110000826089BD09B400FEFDCF8091D8008F7D3B
:101110008093D8008091E1008F7E8093E1008091E0
:10112000E2008F7E8093E2008091E20081608093F4
:10113000E2001092D0183CD08091E10083FF24C0DF
:101140008091E20083FF20C08091E100877F80933F
:10115000E1001092CD188091E1008E7F8093E10034
:101160008091E2008E7F8093E2008091E2008061B6
:101170008093E20084DD20910E0180E060E040E099
:1011800030E000E046DD14D0FF91EF91BF91AF91C8
:101190009F918F917F916F915F914F913F912F918F
:1011A0000F910F900BBE0F900FBE0F901F901895D0
:1011B00008956F927F928F929F92AF92BF92CF923B
:1011C000DF92EF92FF920F931F93DF93CF93CDB7F0
:1011D000DEB72B970FB6F894DEBF0FBECDBF5C0114
:1011E0004B017A01FC0117821682838181FD08C0C0
:1011F0006FEF7FEFFEC042E050E0E40EF51E04C04A
:101200003E010894611C711CF501D380F401D3FCEC
:101210008591D3FE81914F01882309F4E7C085327F
:1012200059F4D3FC6591D3FE61914F01653219F0F9
:10123000062F10E01AC085E290E029C0002309F4CF
:10124000D5C088E191E0602F70E0E9D0892B39F4B6
:10125000033211F4106103C00C3661F41068F4011C
:10126000D3FC0591D3FE01914F0117FFE7CF002377
:1012700009F4BCC081E191E0602F70E0D0D0892BEF
:1012800049F044E050E0E40EF51E8FE390E0B50134
:10129000D1D0BACF033629F0033771F00335E1F42A
:1012A0000AC087010E5F1F4FF70180819181B50150
:1012B000C1D07801A9CF1160F701C080D18003C0EF
:1012C00090E0B501B7D0F60110FD859110FF819136
:1012D0006F018823A9F78FCF043611F0093639F54D
:1012E00017FF08C0F701208131814281538184E0DA
:1012F00090E00AC0F701808191819C01442737FD6D
:101300004095542F82E090E0E80EF91E1F7E57FFB3
:1013100008C050954095309521953F4F4F4F5F4FF6
:101320001064CA01B901A3012AE030E034C00037DB
:10133000A9F0013730F40835B1F00F3609F056C086
:1013400006C0053739F0083709F050C008C028E05A
:1013500030E00CC01F7E2AE030E008C0106114624B
:1013600020E130E003C0146020E132E017FF08C044
:10137000F701608171818281938144E050E008C06F
:10138000F70180819181BC0180E090E042E050E073
:10139000E40EF51EA3017AD0D82ED618012F10E046
:1013A00006FF04C08DE290E0B50144D004FF13C0F5
:1013B000FE01ED0DF11D8081803369F080E390E046
:1013C000B50138D002FF07C000721070C801885AFA
:1013D0009F4FB5012FD0DA94F301ED0DF11D8081FF
:1013E00090E0B50127D0DD20B1F70ECFF501668181
:1013F0007781CB012B960FB6F894DEBF0FBECDBF21
:10140000CF91DF911F910F91FF90EF90DF90CF90E0
:10141000BF90AF909F908F907F906F900895FC0148
:101420000590061621F00020D9F7C00108953197E4
:10143000CF0108950F931F93CF93DF938C01EB019E
:101440008B8181FF1BC082FF0DC02E813F818C816B
:101450009D812817390764F4E881F9810193F983A4
:10146000E88306C0E885F985802F0995892B31F43A
:101470008E819F8101969F838E8302C00FEF1FEFA5
:10148000C801DF91CF911F910F910895FA01AA270A
:10149000283051F1203181F1E8946F936E7F6E5FB7
:1014A0007F4F8F4F9F4FAF4FB1E03ED0B4E03CD065
:1014B000670F781F891F9A1FA11D680F791F8A1F48
:1014C000911DA11D6A0F711D811D911DA11D20D0AF
:1014D00009F468943F912AE0269F11243019305D69
:1014E0003193DEF6CF010895462F4770405D41935A
:1014F000B3E00FD0C9F7F6CF462F4F70405D4A33A7
:1015000018F0495D31FD4052419302D0A9F7EACF6E
:10151000B4E0A6959795879577956795BA95C9F79D
:1015200000976105710508959B01AC010A2E069490
:101530005795479537952795BA95C9F7620F731F49
:0C154000841F951FA01D0895F894FFCF94
:10154C00E4070100840101002B01010000F00800F8
:00000001FF
